{
    "contractName": "ExperienceAndItemsImplementation",
    "abi": [
        {
            "anonymous": false,
            "inputs": [
                {
                    "indexed": true,
                    "internalType": "address",
                    "name": "owner",
                    "type": "address"
                },
                {
                    "indexed": true,
                    "internalType": "address",
                    "name": "operator",
                    "type": "address"
                },
                {
                    "indexed": false,
                    "internalType": "bool",
                    "name": "approved",
                    "type": "bool"
                }
            ],
            "name": "ApprovalForAll",
            "type": "event"
        },
        {
            "anonymous": false,
            "inputs": [
                {
                    "indexed": false,
                    "internalType": "address",
                    "name": "classAssignedTo",
                    "type": "address"
                },
                {
                    "indexed": false,
                    "internalType": "uint256",
                    "name": "erc1155TokenId",
                    "type": "uint256"
                },
                {
                    "indexed": false,
                    "internalType": "uint256",
                    "name": "classId",
                    "type": "uint256"
                }
            ],
            "name": "ClassAssigned",
            "type": "event"
        },
        {
            "anonymous": false,
            "inputs": [
                {
                    "indexed": false,
                    "internalType": "uint8",
                    "name": "version",
                    "type": "uint8"
                }
            ],
            "name": "Initialized",
            "type": "event"
        },
        {
            "anonymous": false,
            "inputs": [
                {
                    "indexed": false,
                    "internalType": "address",
                    "name": "itemTransferedTo",
                    "type": "address"
                },
                {
                    "indexed": false,
                    "internalType": "uint256",
                    "name": "erc1155TokenId",
                    "type": "uint256"
                },
                {
                    "indexed": false,
                    "internalType": "uint256",
                    "name": "itemId",
                    "type": "uint256"
                }
            ],
            "name": "ItemTransfered",
            "type": "event"
        },
        {
            "anonymous": false,
            "inputs": [
                {
                    "indexed": false,
                    "internalType": "uint256",
                    "name": "itemId",
                    "type": "uint256"
                }
            ],
            "name": "ItemUpdated",
            "type": "event"
        },
        {
            "anonymous": false,
            "inputs": [
                {
                    "indexed": false,
                    "internalType": "uint256",
                    "name": "erc1155TokenId",
                    "type": "uint256"
                },
                {
                    "indexed": false,
                    "internalType": "uint256",
                    "name": "classId",
                    "type": "uint256"
                },
                {
                    "indexed": false,
                    "internalType": "string",
                    "name": "name",
                    "type": "string"
                }
            ],
            "name": "NewClassCreated",
            "type": "event"
        },
        {
            "anonymous": false,
            "inputs": [
                {
                    "indexed": false,
                    "internalType": "uint256",
                    "name": "erc1155TokenId",
                    "type": "uint256"
                },
                {
                    "indexed": false,
                    "internalType": "uint256",
                    "name": "itemId",
                    "type": "uint256"
                },
                {
                    "indexed": false,
                    "internalType": "string",
                    "name": "name",
                    "type": "string"
                }
            ],
            "name": "NewItemTypeCreated",
            "type": "event"
        },
        {
            "anonymous": false,
            "inputs": [
                {
                    "indexed": true,
                    "internalType": "address",
                    "name": "operator",
                    "type": "address"
                },
                {
                    "indexed": true,
                    "internalType": "address",
                    "name": "from",
                    "type": "address"
                },
                {
                    "indexed": true,
                    "internalType": "address",
                    "name": "to",
                    "type": "address"
                },
                {
                    "indexed": false,
                    "internalType": "uint256[]",
                    "name": "ids",
                    "type": "uint256[]"
                },
                {
                    "indexed": false,
                    "internalType": "uint256[]",
                    "name": "amounts",
                    "type": "uint256[]"
                }
            ],
            "name": "TransferBatch",
            "type": "event"
        },
        {
            "anonymous": false,
            "inputs": [
                {
                    "indexed": true,
                    "internalType": "address",
                    "name": "operator",
                    "type": "address"
                },
                {
                    "indexed": true,
                    "internalType": "address",
                    "name": "from",
                    "type": "address"
                },
                {
                    "indexed": true,
                    "internalType": "address",
                    "name": "to",
                    "type": "address"
                },
                {
                    "indexed": false,
                    "internalType": "uint256",
                    "name": "id",
                    "type": "uint256"
                },
                {
                    "indexed": false,
                    "internalType": "uint256",
                    "name": "amount",
                    "type": "uint256"
                }
            ],
            "name": "TransferSingle",
            "type": "event"
        },
        {
            "anonymous": false,
            "inputs": [
                {
                    "indexed": false,
                    "internalType": "string",
                    "name": "value",
                    "type": "string"
                },
                {
                    "indexed": true,
                    "internalType": "uint256",
                    "name": "id",
                    "type": "uint256"
                }
            ],
            "name": "URI",
            "type": "event"
        },
        {
            "inputs": [],
            "name": "CHARACTER",
            "outputs": [
                {
                    "internalType": "bytes32",
                    "name": "",
                    "type": "bytes32"
                }
            ],
            "stateMutability": "view",
            "type": "function"
        },
        {
            "inputs": [],
            "name": "DUNGEON_MASTER",
            "outputs": [
                {
                    "internalType": "bytes32",
                    "name": "",
                    "type": "bytes32"
                }
            ],
            "stateMutability": "view",
            "type": "function"
        },
        {
            "inputs": [],
            "name": "EXPERIENCE",
            "outputs": [
                {
                    "internalType": "uint256",
                    "name": "",
                    "type": "uint256"
                }
            ],
            "stateMutability": "view",
            "type": "function"
        },
        {
            "inputs": [],
            "name": "PLAYER",
            "outputs": [
                {
                    "internalType": "bytes32",
                    "name": "",
                    "type": "bytes32"
                }
            ],
            "stateMutability": "view",
            "type": "function"
        },
        {
            "inputs": [
                {
                    "internalType": "uint256",
                    "name": "itemId",
                    "type": "uint256"
                },
                {
                    "internalType": "uint256",
                    "name": "requiredTokenId",
                    "type": "uint256"
                },
                {
                    "internalType": "uint256",
                    "name": "amount",
                    "type": "uint256"
                }
            ],
            "name": "addItemOrClassRequirement",
            "outputs": [
                {
                    "internalType": "bool",
                    "name": "success",
                    "type": "bool"
                }
            ],
            "stateMutability": "nonpayable",
            "type": "function"
        },
        {
            "inputs": [
                {
                    "internalType": "uint256",
                    "name": "characterId",
                    "type": "uint256"
                },
                {
                    "internalType": "uint256",
                    "name": "classId",
                    "type": "uint256"
                }
            ],
            "name": "assignClass",
            "outputs": [],
            "stateMutability": "nonpayable",
            "type": "function"
        },
        {
            "inputs": [
                {
                    "internalType": "uint256",
                    "name": "characterId",
                    "type": "uint256"
                },
                {
                    "internalType": "uint256[]",
                    "name": "_classIds",
                    "type": "uint256[]"
                }
            ],
            "name": "assignClasses",
            "outputs": [],
            "stateMutability": "nonpayable",
            "type": "function"
        },
        {
            "inputs": [
                {
                    "internalType": "address",
                    "name": "owner",
                    "type": "address"
                },
                {
                    "internalType": "uint256",
                    "name": "id",
                    "type": "uint256"
                }
            ],
            "name": "balanceOf",
            "outputs": [
                {
                    "internalType": "uint256",
                    "name": "balance",
                    "type": "uint256"
                }
            ],
            "stateMutability": "view",
            "type": "function"
        },
        {
            "inputs": [
                {
                    "internalType": "address[]",
                    "name": "owners",
                    "type": "address[]"
                },
                {
                    "internalType": "uint256[]",
                    "name": "ids",
                    "type": "uint256[]"
                }
            ],
            "name": "balanceOfBatch",
            "outputs": [
                {
                    "internalType": "uint256[]",
                    "name": "balances",
                    "type": "uint256[]"
                }
            ],
            "stateMutability": "view",
            "type": "function"
        },
        {
            "inputs": [],
            "name": "characterSheets",
            "outputs": [
                {
                    "internalType": "contract CharacterSheetsImplementation",
                    "name": "",
                    "type": "address"
                }
            ],
            "stateMutability": "view",
            "type": "function"
        },
        {
            "inputs": [
                {
                    "internalType": "uint256[]",
                    "name": "itemIds",
                    "type": "uint256[]"
                },
                {
                    "internalType": "uint256[]",
                    "name": "amounts",
                    "type": "uint256[]"
                },
                {
                    "internalType": "bytes32[][]",
                    "name": "proofs",
                    "type": "bytes32[][]"
                }
            ],
            "name": "claimItems",
            "outputs": [
                {
                    "internalType": "bool",
                    "name": "success",
                    "type": "bool"
                }
            ],
            "stateMutability": "nonpayable",
            "type": "function"
        },
        {
            "inputs": [
                {
                    "internalType": "uint256",
                    "name": "",
                    "type": "uint256"
                }
            ],
            "name": "classes",
            "outputs": [
                {
                    "internalType": "uint256",
                    "name": "tokenId",
                    "type": "uint256"
                },
                {
                    "internalType": "uint256",
                    "name": "classId",
                    "type": "uint256"
                },
                {
                    "internalType": "string",
                    "name": "name",
                    "type": "string"
                },
                {
                    "internalType": "uint256",
                    "name": "supply",
                    "type": "uint256"
                },
                {
                    "internalType": "string",
                    "name": "cid",
                    "type": "string"
                }
            ],
            "stateMutability": "view",
            "type": "function"
        },
        {
            "inputs": [
                {
                    "components": [
                        {
                            "internalType": "uint256",
                            "name": "tokenId",
                            "type": "uint256"
                        },
                        {
                            "internalType": "uint256",
                            "name": "classId",
                            "type": "uint256"
                        },
                        {
                            "internalType": "string",
                            "name": "name",
                            "type": "string"
                        },
                        {
                            "internalType": "uint256",
                            "name": "supply",
                            "type": "uint256"
                        },
                        {
                            "internalType": "string",
                            "name": "cid",
                            "type": "string"
                        }
                    ],
                    "internalType": "struct Class",
                    "name": "_newClass",
                    "type": "tuple"
                }
            ],
            "name": "createClassType",
            "outputs": [
                {
                    "internalType": "uint256",
                    "name": "tokenId",
                    "type": "uint256"
                },
                {
                    "internalType": "uint256",
                    "name": "classId",
                    "type": "uint256"
                }
            ],
            "stateMutability": "nonpayable",
            "type": "function"
        },
        {
            "inputs": [
                {
                    "internalType": "bytes",
                    "name": "itemData",
                    "type": "bytes"
                }
            ],
            "name": "createItemType",
            "outputs": [
                {
                    "internalType": "uint256",
                    "name": "tokenId",
                    "type": "uint256"
                },
                {
                    "internalType": "uint256",
                    "name": "itemId",
                    "type": "uint256"
                }
            ],
            "stateMutability": "nonpayable",
            "type": "function"
        },
        {
            "inputs": [
                {
                    "internalType": "address[]",
                    "name": "nftAddress",
                    "type": "address[]"
                },
                {
                    "internalType": "uint256[][]",
                    "name": "itemIds",
                    "type": "uint256[][]"
                },
                {
                    "internalType": "uint256[][]",
                    "name": "amounts",
                    "type": "uint256[][]"
                }
            ],
            "name": "dropLoot",
            "outputs": [
                {
                    "internalType": "bool",
                    "name": "success",
                    "type": "bool"
                }
            ],
            "stateMutability": "nonpayable",
            "type": "function"
        },
        {
            "inputs": [
                {
                    "internalType": "uint256",
                    "name": "characterId",
                    "type": "uint256"
                },
                {
                    "internalType": "uint256",
                    "name": "classId",
                    "type": "uint256"
                }
            ],
            "name": "equipClass",
            "outputs": [
                {
                    "internalType": "bool",
                    "name": "",
                    "type": "bool"
                }
            ],
            "stateMutability": "nonpayable",
            "type": "function"
        },
        {
            "inputs": [
                {
                    "internalType": "uint256",
                    "name": "characterId",
                    "type": "uint256"
                },
                {
                    "internalType": "uint256",
                    "name": "itemId",
                    "type": "uint256"
                }
            ],
            "name": "equipItem",
            "outputs": [
                {
                    "internalType": "bool",
                    "name": "",
                    "type": "bool"
                }
            ],
            "stateMutability": "nonpayable",
            "type": "function"
        },
        {
            "inputs": [
                {
                    "internalType": "string",
                    "name": "_name",
                    "type": "string"
                }
            ],
            "name": "findClassByName",
            "outputs": [
                {
                    "internalType": "uint256",
                    "name": "tokenId",
                    "type": "uint256"
                },
                {
                    "internalType": "uint256",
                    "name": "classId",
                    "type": "uint256"
                }
            ],
            "stateMutability": "view",
            "type": "function"
        },
        {
            "inputs": [
                {
                    "internalType": "string",
                    "name": "_name",
                    "type": "string"
                }
            ],
            "name": "findItemByName",
            "outputs": [
                {
                    "internalType": "uint256",
                    "name": "tokenId",
                    "type": "uint256"
                },
                {
                    "internalType": "uint256",
                    "name": "itemId",
                    "type": "uint256"
                }
            ],
            "stateMutability": "view",
            "type": "function"
        },
        {
            "inputs": [
                {
                    "internalType": "uint256",
                    "name": "tokenId",
                    "type": "uint256"
                }
            ],
            "name": "findItemOrClassIdFromTokenId",
            "outputs": [
                {
                    "internalType": "uint256",
                    "name": "itemOrClassId",
                    "type": "uint256"
                },
                {
                    "internalType": "bool",
                    "name": "isClass",
                    "type": "bool"
                }
            ],
            "stateMutability": "view",
            "type": "function"
        },
        {
            "inputs": [],
            "name": "getAllClasses",
            "outputs": [
                {
                    "components": [
                        {
                            "internalType": "uint256",
                            "name": "tokenId",
                            "type": "uint256"
                        },
                        {
                            "internalType": "uint256",
                            "name": "classId",
                            "type": "uint256"
                        },
                        {
                            "internalType": "string",
                            "name": "name",
                            "type": "string"
                        },
                        {
                            "internalType": "uint256",
                            "name": "supply",
                            "type": "uint256"
                        },
                        {
                            "internalType": "string",
                            "name": "cid",
                            "type": "string"
                        }
                    ],
                    "internalType": "struct Class[]",
                    "name": "",
                    "type": "tuple[]"
                }
            ],
            "stateMutability": "view",
            "type": "function"
        },
        {
            "inputs": [],
            "name": "getAllItems",
            "outputs": [
                {
                    "components": [
                        {
                            "internalType": "uint256",
                            "name": "tokenId",
                            "type": "uint256"
                        },
                        {
                            "internalType": "uint256",
                            "name": "itemId",
                            "type": "uint256"
                        },
                        {
                            "internalType": "string",
                            "name": "name",
                            "type": "string"
                        },
                        {
                            "internalType": "uint256",
                            "name": "supply",
                            "type": "uint256"
                        },
                        {
                            "internalType": "uint256",
                            "name": "supplied",
                            "type": "uint256"
                        },
                        {
                            "internalType": "uint256[][]",
                            "name": "requirements",
                            "type": "uint256[][]"
                        },
                        {
                            "internalType": "bool",
                            "name": "soulbound",
                            "type": "bool"
                        },
                        {
                            "internalType": "bytes32",
                            "name": "claimable",
                            "type": "bytes32"
                        },
                        {
                            "internalType": "string",
                            "name": "cid",
                            "type": "string"
                        }
                    ],
                    "internalType": "struct Item[]",
                    "name": "",
                    "type": "tuple[]"
                }
            ],
            "stateMutability": "view",
            "type": "function"
        },
        {
            "inputs": [
                {
                    "internalType": "uint256",
                    "name": "classId",
                    "type": "uint256"
                }
            ],
            "name": "getClassById",
            "outputs": [
                {
                    "components": [
                        {
                            "internalType": "uint256",
                            "name": "tokenId",
                            "type": "uint256"
                        },
                        {
                            "internalType": "uint256",
                            "name": "classId",
                            "type": "uint256"
                        },
                        {
                            "internalType": "string",
                            "name": "name",
                            "type": "string"
                        },
                        {
                            "internalType": "uint256",
                            "name": "supply",
                            "type": "uint256"
                        },
                        {
                            "internalType": "string",
                            "name": "cid",
                            "type": "string"
                        }
                    ],
                    "internalType": "struct Class",
                    "name": "",
                    "type": "tuple"
                }
            ],
            "stateMutability": "view",
            "type": "function"
        },
        {
            "inputs": [
                {
                    "internalType": "uint256",
                    "name": "itemId",
                    "type": "uint256"
                }
            ],
            "name": "getItemById",
            "outputs": [
                {
                    "components": [
                        {
                            "internalType": "uint256",
                            "name": "tokenId",
                            "type": "uint256"
                        },
                        {
                            "internalType": "uint256",
                            "name": "itemId",
                            "type": "uint256"
                        },
                        {
                            "internalType": "string",
                            "name": "name",
                            "type": "string"
                        },
                        {
                            "internalType": "uint256",
                            "name": "supply",
                            "type": "uint256"
                        },
                        {
                            "internalType": "uint256",
                            "name": "supplied",
                            "type": "uint256"
                        },
                        {
                            "internalType": "uint256[][]",
                            "name": "requirements",
                            "type": "uint256[][]"
                        },
                        {
                            "internalType": "bool",
                            "name": "soulbound",
                            "type": "bool"
                        },
                        {
                            "internalType": "bytes32",
                            "name": "claimable",
                            "type": "bytes32"
                        },
                        {
                            "internalType": "string",
                            "name": "cid",
                            "type": "string"
                        }
                    ],
                    "internalType": "struct Item",
                    "name": "",
                    "type": "tuple"
                }
            ],
            "stateMutability": "view",
            "type": "function"
        },
        {
            "inputs": [],
            "name": "hats",
            "outputs": [
                {
                    "internalType": "contract IHats",
                    "name": "",
                    "type": "address"
                }
            ],
            "stateMutability": "view",
            "type": "function"
        },
        {
            "inputs": [
                {
                    "internalType": "bytes",
                    "name": "_encodedData",
                    "type": "bytes"
                }
            ],
            "name": "initialize",
            "outputs": [],
            "stateMutability": "nonpayable",
            "type": "function"
        },
        {
            "inputs": [
                {
                    "internalType": "address",
                    "name": "",
                    "type": "address"
                },
                {
                    "internalType": "address",
                    "name": "",
                    "type": "address"
                }
            ],
            "name": "isApprovedForAll",
            "outputs": [
                {
                    "internalType": "bool",
                    "name": "",
                    "type": "bool"
                }
            ],
            "stateMutability": "view",
            "type": "function"
        },
        {
            "inputs": [
                {
                    "internalType": "uint256",
                    "name": "",
                    "type": "uint256"
                }
            ],
            "name": "items",
            "outputs": [
                {
                    "internalType": "uint256",
                    "name": "tokenId",
                    "type": "uint256"
                },
                {
                    "internalType": "uint256",
                    "name": "itemId",
                    "type": "uint256"
                },
                {
                    "internalType": "string",
                    "name": "name",
                    "type": "string"
                },
                {
                    "internalType": "uint256",
                    "name": "supply",
                    "type": "uint256"
                },
                {
                    "internalType": "uint256",
                    "name": "supplied",
                    "type": "uint256"
                },
                {
                    "internalType": "bool",
                    "name": "soulbound",
                    "type": "bool"
                },
                {
                    "internalType": "bytes32",
                    "name": "claimable",
                    "type": "bytes32"
                },
                {
                    "internalType": "string",
                    "name": "cid",
                    "type": "string"
                }
            ],
            "stateMutability": "view",
            "type": "function"
        },
        {
            "inputs": [],
            "name": "molochDao",
            "outputs": [
                {
                    "internalType": "contract IMolochDAO",
                    "name": "",
                    "type": "address"
                }
            ],
            "stateMutability": "view",
            "type": "function"
        },
        {
            "inputs": [
                {
                    "internalType": "address",
                    "name": "",
                    "type": "address"
                },
                {
                    "internalType": "address",
                    "name": "",
                    "type": "address"
                },
                {
                    "internalType": "uint256[]",
                    "name": "",
                    "type": "uint256[]"
                },
                {
                    "internalType": "uint256[]",
                    "name": "",
                    "type": "uint256[]"
                },
                {
                    "internalType": "bytes",
                    "name": "",
                    "type": "bytes"
                }
            ],
            "name": "onERC1155BatchReceived",
            "outputs": [
                {
                    "internalType": "bytes4",
                    "name": "",
                    "type": "bytes4"
                }
            ],
            "stateMutability": "nonpayable",
            "type": "function"
        },
        {
            "inputs": [
                {
                    "internalType": "address",
                    "name": "",
                    "type": "address"
                },
                {
                    "internalType": "address",
                    "name": "",
                    "type": "address"
                },
                {
                    "internalType": "uint256",
                    "name": "",
                    "type": "uint256"
                },
                {
                    "internalType": "uint256",
                    "name": "",
                    "type": "uint256"
                },
                {
                    "internalType": "bytes",
                    "name": "",
                    "type": "bytes"
                }
            ],
            "name": "onERC1155Received",
            "outputs": [
                {
                    "internalType": "bytes4",
                    "name": "",
                    "type": "bytes4"
                }
            ],
            "stateMutability": "nonpayable",
            "type": "function"
        },
        {
            "inputs": [
                {
                    "internalType": "uint256",
                    "name": "itemId",
                    "type": "uint256"
                },
                {
                    "internalType": "uint256",
                    "name": "removedItemId",
                    "type": "uint256"
                }
            ],
            "name": "removeItemOrClassRequirement",
            "outputs": [
                {
                    "internalType": "bool",
                    "name": "",
                    "type": "bool"
                }
            ],
            "stateMutability": "nonpayable",
            "type": "function"
        },
        {
            "inputs": [
                {
                    "internalType": "uint256",
                    "name": "characterId",
                    "type": "uint256"
                },
                {
                    "internalType": "uint256",
                    "name": "classId",
                    "type": "uint256"
                }
            ],
            "name": "revokeClass",
            "outputs": [
                {
                    "internalType": "bool",
                    "name": "success",
                    "type": "bool"
                }
            ],
            "stateMutability": "nonpayable",
            "type": "function"
        },
        {
            "inputs": [
                {
                    "internalType": "address",
                    "name": "from",
                    "type": "address"
                },
                {
                    "internalType": "address",
                    "name": "to",
                    "type": "address"
                },
                {
                    "internalType": "uint256[]",
                    "name": "ids",
                    "type": "uint256[]"
                },
                {
                    "internalType": "uint256[]",
                    "name": "amounts",
                    "type": "uint256[]"
                },
                {
                    "internalType": "bytes",
                    "name": "data",
                    "type": "bytes"
                }
            ],
            "name": "safeBatchTransferFrom",
            "outputs": [],
            "stateMutability": "nonpayable",
            "type": "function"
        },
        {
            "inputs": [
                {
                    "internalType": "address",
                    "name": "from",
                    "type": "address"
                },
                {
                    "internalType": "address",
                    "name": "to",
                    "type": "address"
                },
                {
                    "internalType": "uint256",
                    "name": "id",
                    "type": "uint256"
                },
                {
                    "internalType": "uint256",
                    "name": "amount",
                    "type": "uint256"
                },
                {
                    "internalType": "bytes",
                    "name": "data",
                    "type": "bytes"
                }
            ],
            "name": "safeTransferFrom",
            "outputs": [],
            "stateMutability": "nonpayable",
            "type": "function"
        },
        {
            "inputs": [
                {
                    "internalType": "address",
                    "name": "operator",
                    "type": "address"
                },
                {
                    "internalType": "bool",
                    "name": "approved",
                    "type": "bool"
                }
            ],
            "name": "setApprovalForAll",
            "outputs": [],
            "stateMutability": "nonpayable",
            "type": "function"
        },
        {
            "inputs": [
                {
                    "internalType": "bytes4",
                    "name": "interfaceId",
                    "type": "bytes4"
                }
            ],
            "name": "supportsInterface",
            "outputs": [
                {
                    "internalType": "bool",
                    "name": "",
                    "type": "bool"
                }
            ],
            "stateMutability": "view",
            "type": "function"
        },
        {
            "inputs": [],
            "name": "totalClasses",
            "outputs": [
                {
                    "internalType": "uint256",
                    "name": "",
                    "type": "uint256"
                }
            ],
            "stateMutability": "view",
            "type": "function"
        },
        {
            "inputs": [],
            "name": "totalExperience",
            "outputs": [
                {
                    "internalType": "uint256",
                    "name": "",
                    "type": "uint256"
                }
            ],
            "stateMutability": "view",
            "type": "function"
        },
        {
            "inputs": [],
            "name": "totalItemTypes",
            "outputs": [
                {
                    "internalType": "uint256",
                    "name": "",
                    "type": "uint256"
                }
            ],
            "stateMutability": "view",
            "type": "function"
        },
        {
            "inputs": [
                {
                    "internalType": "uint256",
                    "name": "characterId",
                    "type": "uint256"
                },
                {
                    "internalType": "uint256",
                    "name": "classId",
                    "type": "uint256"
                }
            ],
            "name": "unequipClass",
            "outputs": [
                {
                    "internalType": "bool",
                    "name": "",
                    "type": "bool"
                }
            ],
            "stateMutability": "nonpayable",
            "type": "function"
        },
        {
            "inputs": [
                {
                    "internalType": "uint256",
                    "name": "characterId",
                    "type": "uint256"
                },
                {
                    "internalType": "uint256",
                    "name": "itemId",
                    "type": "uint256"
                }
            ],
            "name": "unequipItem",
            "outputs": [
                {
                    "internalType": "bool",
                    "name": "",
                    "type": "bool"
                }
            ],
            "stateMutability": "nonpayable",
            "type": "function"
        },
        {
            "inputs": [
                {
                    "internalType": "uint256",
                    "name": "itemId",
                    "type": "uint256"
                },
                {
                    "internalType": "bytes32",
                    "name": "merkleRoot",
                    "type": "bytes32"
                }
            ],
            "name": "updateItemClaimable",
            "outputs": [],
            "stateMutability": "nonpayable",
            "type": "function"
        },
        {
            "inputs": [
                {
                    "internalType": "uint256",
                    "name": "tokenId",
                    "type": "uint256"
                }
            ],
            "name": "uri",
            "outputs": [
                {
                    "internalType": "string",
                    "name": "",
                    "type": "string"
                }
            ],
            "stateMutability": "view",
            "type": "function"
        }
    ],
    "bytecode": "60a0604052600060809081526006906200001a9082620000d4565b503480156200002857600080fd5b50620001a0565b634e487b7160e01b600052604160045260246000fd5b600181811c908216806200005a57607f821691505b6020821081036200007b57634e487b7160e01b600052602260045260246000fd5b50919050565b601f821115620000cf57600081815260208120601f850160051c81016020861015620000aa5750805b601f850160051c820191505b81811015620000cb57828155600101620000b6565b5050505b505050565b81516001600160401b03811115620000f057620000f06200002f565b620001088162000101845462000045565b8462000081565b602080601f831160018114620001405760008415620001275750858301515b600019600386901b1c1916600185901b178555620000cb565b600085815260208120601f198616915b82811015620001715788860151825594840194600190910190840162000150565b5085821015620001905787850151600019600388901b60f8161c191681555b5050505050600190811b01905550565b61716880620001b06000396000f3fe608060405234801561001057600080fd5b50600436106102735760003560e01c806367e3d45211610151578063bc197c81116100c3578063e985e9c511610087578063e985e9c51461060d578063f23a6e611461063b578063f242432a1461065a578063f99f02381461066d578063f9bd86e814610680578063ffb0985e1461069357600080fd5b8063bc197c811461057b578063bfb231d2146105b3578063cd2f0710146105da578063d22fed16146105fa578063e5f69e41146102e857600080fd5b8063817dbe9f11610115578063817dbe9f146104ed578063925e38f9146105115780639a3e46661461051a5780639a516586146105425780639ea54a0914610555578063a22cb4651461056857600080fd5b806367e3d452146104965780636bda75dd146104a95780637195332d146104be57806374ecadd5146104d15780637aaf470c146104e457600080fd5b8063262a8c3b116101ea578063439fab91116101ae578063439fab91146103fd5780634ba1d6aa146104105780634e1273f41461042557806350642237146104455780635fdfe6f21461047057806365b8f5841461048357600080fd5b8063262a8c3b146103895780632eb2c2d61461039c5780633a345446146103af5780633aa2adf2146103c25780633d90306b146103d557600080fd5b80630e89341c1161023c5780630e89341c1461031b578063100e415a1461033b578063176523a4146103505780631a3f09aa146103595780631ab440cf1461036e5780631ef2f9831461037657600080fd5b8062fdd58e1461027857806301ffc9a71461029e5780630236ca74146102c157806303b151e0146102e857806303d658e0146102fb575b600080fd5b61028b610286366004615c3b565b6106a8565b6040519081526020015b60405180910390f35b6102b16102ac366004615c7d565b6106cf565b6040519015158152602001610295565b61028b7f0f98b3a5774fbfdf19646dba94a6c08f13f4c341502334a57724de46497192c381565b6102b16102f6366004615c9a565b6106e0565b61030e610309366004615cbc565b610a35565b6040516102959190615d82565b61032e610329366004615cbc565b610bce565b6040516102959190615d95565b61028b6000805160206170f383398151915281565b61028b600c5481565b61036c610367366004615c9a565b610d30565b005b61028b600081565b61036c610384366004615c9a565b610e7b565b6102b1610397366004615c9a565b611288565b61036c6103aa366004615e2d565b61165d565b6102b16103bd366004615c9a565b611866565b6102b16103d0366004615c9a565b611c85565b6103e86103e3366004615ff8565b611f5e565b60408051928352602083019190915201610295565b61036c61040b36600461602c565b61203b565b6104186121ed565b6040516102959190616198565b6104386104333660046161fa565b6124aa565b6040516102959190616265565b600f54610458906001600160a01b031681565b6040516001600160a01b039091168152602001610295565b61036c61047e366004616278565b6125df565b6103e86104913660046162c3565b6126c0565b6103e86104a436600461602c565b612873565b6104b1612991565b6040516102959190616371565b6102b16104cc3660046163c6565b612bbd565b6102b16104df366004615c9a565b6131d4565b61028b600d5481565b6105006104fb366004615cbc565b613633565b60405161029595949392919061645f565b61028b600e5481565b61052d610528366004615cbc565b613772565b60408051928352901515602083015201610295565b6103e861055036600461602c565b613816565b6102b16105633660046164a2565b613b4f565b61036c6105763660046164dc565b613fb5565b61059a61058936600461659e565b63bc197c8160e01b95945050505050565b6040516001600160e01b03199091168152602001610295565b6105c66105c1366004615cbc565b613fc3565b60405161029598979695949392919061664b565b6105ed6105e8366004615cbc565b61411d565b60405161029591906166a8565b601054610458906001600160a01b031681565b6102b161061b3660046166bb565b600260209081526000928352604080842090915290825290205460ff1681565b61059a6106493660046166e9565b63f23a6e6160e01b95945050505050565b61036c610668366004616751565b6142c4565b601154610458906001600160a01b031681565b6102b161068e3660046163c6565b614678565b61028b60008051602061711383398151915281565b6001600160a01b039091166000908152600160209081526040808320938352929052205490565b60006106da82614bfc565b92915050565b601054604051632474521560e21b81526000805160206170f383398151915260048201523360248201526000916001600160a01b0316906391d1485490604401602060405180830381865afa15801561073d573d6000803e3d6000fd5b505050506040513d601f19601f8201168201806040525081019061076191906167ca565b6107865760405162461bcd60e51b815260040161077d906167e7565b60405180910390fd5b60105460405163cb0825a160e01b8152600481018590526000916001600160a01b03169063cb0825a190602401600060405180830381865afa1580156107d0573d6000803e3d6000fd5b505050506040513d6000823e601f3d908101601f191682016040526107f891908101906168c0565b90506000600960008581526020019081526020016000206040518060a0016040529081600082015481526020016001820154815260200160028201805461083e906169a0565b80601f016020809104026020016040519081016040528092919081815260200182805461086a906169a0565b80156108b75780601f1061088c576101008083540402835291602001916108b7565b820191906000526020600020905b81548152906001019060200180831161089a57829003601f168201915b50505050508152602001600382015481526020016004820180546108da906169a0565b80601f0160208091040260200160405190810160405280929190818152602001828054610906906169a0565b80156109535780601f1061092857610100808354040283529160200191610953565b820191906000526020600020905b81548152906001019060200180831161093657829003601f168201915b5050505050815250509050610970826040015182600001516106a8565b60011461098f5760405162461bcd60e51b815260040161077d906169d4565b81604001516001600160a01b0316336001600160a01b0316146109c45760405162461bcd60e51b815260040161077d906169fd565b6010546040516349b8aa8f60e01b815260048101879052602481018690526001600160a01b03909116906349b8aa8f906044015b600060405180830381600087803b158015610a1257600080fd5b505af1158015610a26573d6000803e3d6000fd5b50600198975050505050505050565b610a676040518060a0016040528060008152602001600081526020016060815260200160008152602001606081525090565b600960008381526020019081526020016000206040518060a00160405290816000820154815260200160018201548152602001600282018054610aa9906169a0565b80601f0160208091040260200160405190810160405280929190818152602001828054610ad5906169a0565b8015610b225780601f10610af757610100808354040283529160200191610b22565b820191906000526020600020905b815481529060010190602001808311610b0557829003601f168201915b5050505050815260200160038201548152602001600482018054610b45906169a0565b80601f0160208091040260200160405190810160405280929190818152602001828054610b71906169a0565b8015610bbe5780601f10610b9357610100808354040283529160200191610bbe565b820191906000526020600020905b815481529060010190602001808311610ba157829003601f168201915b5050505050815250509050919050565b600081815260076020526040812080546060929190610bec906169a0565b80601f0160208091040260200160405190810160405280929190818152602001828054610c18906169a0565b8015610c655780601f10610c3a57610100808354040283529160200191610c65565b820191906000526020600020905b815481529060010190602001808311610c4857829003601f168201915b505050505090506000815111610d055760068054610c82906169a0565b80601f0160208091040260200160405190810160405280929190818152602001828054610cae906169a0565b8015610cfb5780601f10610cd057610100808354040283529160200191610cfb565b820191906000526020600020905b815481529060010190602001808311610cde57829003601f168201915b5050505050610d29565b600681604051602001610d19929190616a2a565b6040516020818303038152906040525b9392505050565b601054604051632474521560e21b815260008051602061711383398151915260048201523360248201526001600160a01b03909116906391d1485490604401602060405180830381865afa158015610d8c573d6000803e3d6000fd5b505050506040513d601f19601f82011682018060405250810190610db091906167ca565b610dcc5760405162461bcd60e51b815260040161077d90616ab1565b6000828152600860205260408120549003610e295760405162461bcd60e51b815260206004820152601d60248201527f74686973206973206e6f7420612072656769737465726564206974656d000000604482015260640161077d565b60008281526008602052604090819020600701829055517f5e58dfa592b09c585a4ab7ef8158d20b1e52e9897f3095dbe1df700853905c2f90610e6f9084815260200190565b60405180910390a15050565b601054604051632474521560e21b815260008051602061711383398151915260048201523360248201526001600160a01b03909116906391d1485490604401602060405180830381865afa158015610ed7573d6000803e3d6000fd5b505050506040513d601f19601f82011682018060405250810190610efb91906167ca565b610f175760405162461bcd60e51b815260040161077d90616ab1565b60105460405163cb0825a160e01b8152600481018490526000916001600160a01b03169063cb0825a190602401600060405180830381865afa158015610f61573d6000803e3d6000fd5b505050506040513d6000823e601f3d908101601f19168201604052610f8991908101906168c0565b90506000600960008481526020019081526020016000206040518060a00160405290816000820154815260200160018201548152602001600282018054610fcf906169a0565b80601f0160208091040260200160405190810160405280929190818152602001828054610ffb906169a0565b80156110485780601f1061101d57610100808354040283529160200191611048565b820191906000526020600020905b81548152906001019060200180831161102b57829003601f168201915b505050505081526020016003820154815260200160048201805461106b906169a0565b80601f0160208091040260200160405190810160405280929190818152602001828054611097906169a0565b80156110e45780601f106110b9576101008083540402835291602001916110e4565b820191906000526020600020905b8154815290600101906020018083116110c757829003601f168201915b5050509190925250505060608301519091506001600160a01b031661114b5760405162461bcd60e51b815260206004820152601b60248201527f54686973206d656d626572206973206e6f74206120706c617965720000000000604482015260640161077d565b80516111995760405162461bcd60e51b815260206004820152601a60248201527f5468697320636c61737320646f6573206e6f742065786973742e000000000000604482015260640161077d565b6111ab826040015182600001516106a8565b156111f85760405162461bcd60e51b815260206004820152601d60248201527f43616e206f6e6c792061737369676e206120636c617373206f6e63652e000000604482015260640161077d565b6112118260400151826000015160018460800151614c4a565b600083815260096020526040812060030180549161122e83616afe565b9091555050604082810151825182516001600160a01b03909216825260208201529081018490527febe2cdd1fe0f59d8622b9a235c028ee82bb8204b7bc08d0cb22d88efa66bbb0a9060600160405180910390a150505050565b601054604051632474521560e21b81526000805160206170f383398151915260048201523360248201526000916001600160a01b0316906391d1485490604401602060405180830381865afa1580156112e5573d6000803e3d6000fd5b505050506040513d601f19601f8201168201806040525081019061130991906167ca565b6113255760405162461bcd60e51b815260040161077d906167e7565b60105460405163cb0825a160e01b8152600481018590526000916001600160a01b03169063cb0825a190602401600060405180830381865afa15801561136f573d6000803e3d6000fd5b505050506040513d6000823e601f3d908101601f1916820160405261139791908101906168c0565b90506000600860008581526020019081526020016000206040518061012001604052908160008201548152602001600182015481526020016002820180546113de906169a0565b80601f016020809104026020016040519081016040528092919081815260200182805461140a906169a0565b80156114575780601f1061142c57610100808354040283529160200191611457565b820191906000526020600020905b81548152906001019060200180831161143a57829003601f168201915b50505050508152602001600382015481526020016004820154815260200160058201805480602002602001604051908101604052809291908181526020016000905b82821015611505576000848152602090819020830180546040805182850281018501909152818152928301828280156114f157602002820191906000526020600020905b8154815260200190600101908083116114dd575b505050505081526020019060010190611499565b50505090825250600682015460ff16151560208201526007820154604082015260088201805460609092019161153a906169a0565b80601f0160208091040260200160405190810160405280929190818152602001828054611566906169a0565b80156115b35780601f10611588576101008083540402835291602001916115b3565b820191906000526020600020905b81548152906001019060200180831161159657829003601f168201915b505050505081525050905060016115d2836040015183600001516106a8565b10156115f05760405162461bcd60e51b815260040161077d906169d4565b81604001516001600160a01b0316336001600160a01b0316146116255760405162461bcd60e51b815260040161077d906169fd565b601054604051631c935c4960e11b815260048101879052602481018690526001600160a01b0390911690633926b892906044016109f8565b84831461169e5760405162461bcd60e51b815260206004820152600f60248201526e0988a9c8ea890be9a92a69a82a8869608b1b604482015260640161077d565b336001600160a01b03891614806116d857506001600160a01b038816600090815260026020908152604080832033845290915290205460ff165b6117155760405162461bcd60e51b815260206004820152600e60248201526d1393d517d055551213d49256915160921b604482015260640161077d565b60008060005b87811015611736576117318b8b858589896142c4565b61171b565b50886001600160a01b03168a6001600160a01b0316336001600160a01b03167f4a39dc06d4c0dbc64b70af90fd698a233a518aa5d07e595d983b8c0526c8f7fb8b8b8b8b60405161178a9493929190616b4d565b60405180910390a46001600160a01b0389163b156118315760405163bc197c8160e01b808252906001600160a01b038b169063bc197c81906117de9033908f908e908e908e908e908e908e90600401616ba8565b6020604051808303816000875af11580156117fd573d6000803e3d6000fd5b505050506040513d601f19601f820116820180604052508101906118219190616bfd565b6001600160e01b0319161461183e565b6001600160a01b03891615155b61185a5760405162461bcd60e51b815260040161077d90616c1a565b50505050505050505050565b601054604051632474521560e21b81526000805160206170f383398151915260048201523360248201526000916001600160a01b0316906391d1485490604401602060405180830381865afa1580156118c3573d6000803e3d6000fd5b505050506040513d601f19601f820116820180604052508101906118e791906167ca565b6119035760405162461bcd60e51b815260040161077d906167e7565b60105460405163cb0825a160e01b8152600481018590526000916001600160a01b03169063cb0825a190602401600060405180830381865afa15801561194d573d6000803e3d6000fd5b505050506040513d6000823e601f3d908101601f1916820160405261197591908101906168c0565b90506000600860008581526020019081526020016000206040518061012001604052908160008201548152602001600182015481526020016002820180546119bc906169a0565b80601f01602080910402602001604051908101604052809291908181526020018280546119e8906169a0565b8015611a355780601f10611a0a57610100808354040283529160200191611a35565b820191906000526020600020905b815481529060010190602001808311611a1857829003601f168201915b50505050508152602001600382015481526020016004820154815260200160058201805480602002602001604051908101604052809291908181526020016000905b82821015611ae357600084815260209081902083018054604080518285028101850190915281815292830182828015611acf57602002820191906000526020600020905b815481526020019060010190808311611abb575b505050505081526020019060010190611a77565b50505090825250600682015460ff161515602082015260078201546040820152600882018054606090920191611b18906169a0565b80601f0160208091040260200160405190810160405280929190818152602001828054611b44906169a0565b8015611b915780601f10611b6657610100808354040283529160200191611b91565b820191906000526020600020905b815481529060010190602001808311611b7457829003601f168201915b50505050508152505090506001611bb0836040015183600001516106a8565b1015611bce5760405162461bcd60e51b815260040161077d906169d4565b81604001516001600160a01b0316336001600160a01b031614611c035760405162461bcd60e51b815260040161077d906169fd565b6010546040516369514e0160e11b815260048101879052602481018690526001600160a01b039091169063d2a29c02906044016020604051808303816000875af1158015611c55573d6000803e3d6000fd5b505050506040513d601f19601f82011682018060405250810190611c7991906167ca565b50600195945050505050565b601054604051632474521560e21b815260008051602061711383398151915260048201523360248201526000916001600160a01b0316906391d1485490604401602060405180830381865afa158015611ce2573d6000803e3d6000fd5b505050506040513d601f19601f82011682018060405250810190611d0691906167ca565b611d225760405162461bcd60e51b815260040161077d90616ab1565b600083815260086020908152604080832060050180548251818502810185019093528083529192909190849084015b82821015611dbd57600084815260209081902083018054604080518285028101850190915281815292830182828015611da957602002820191906000526020600020905b815481526020019060010190808311611d95575b505050505081526020019060010190611d51565b5050505090506000805b8251811015611ee65784838281518110611de357611de3616c44565b6020026020010151600081518110611dfd57611dfd616c44565b602002602001015103611ed457805b8351811015611ece578351611e22826001616c5a565b1015611e6e5783611e34826001616c5a565b81518110611e4457611e44616c44565b6020026020010151848281518110611e5e57611e5e616c44565b6020026020010181905250611ebc565b8351611e7b826001616c5a565b10611ebc57604080516002808252606082018352909160208301908036833701905050848281518110611eb057611eb0616c44565b60200260200101819052505b80611ec681616afe565b915050611e0c565b50600191505b80611ede81616afe565b915050611dc7565b50801515600103611f565760008581526008602090815260409091208351611f1692600590920191850190615ade565b506000858152600860205260409020600501805480611f3757611f37616c72565b600190038181906000526020600020016000611f539190615b3b565b90555b949350505050565b60008082815b600d5481116120015781604051602001611f7e9190615d95565b60408051601f198184030181528282528051602091820120600085815260088352929092209192611fb3926002019101616c88565b6040516020818303038152906040528051906020012003611fef5760009081526008602052604090208054600190910154909590945092505050565b80611ff981616afe565b915050611f64565b5060405162461bcd60e51b815260206004820152600e60248201526d27379034ba32b6903337bab7321760911b604482015260640161077d565b600054610100900460ff161580801561205b5750600054600160ff909116105b806120755750303b158015612075575060005460ff166001145b6120d85760405162461bcd60e51b815260206004820152602e60248201527f496e697469616c697a61626c653a20636f6e747261637420697320616c72656160448201526d191e481a5b9a5d1a585b1a5e995960921b606482015260840161077d565b6000805460ff1916600117905580156120fb576000805461ff0019166101001790555b6000808080606061210e87890189616d13565b601180546001600160a01b0319166001600160a01b0384161790559298509296509450909250905060066121428282616dc7565b50600f80546001600160a01b038087166001600160a01b0319928316179092556010805492861692909116919091179055612181600380546001019055565b61218f600480546001019055565b61219d600580546001019055565b505050505080156121e8576000805461ff0019169055604051600181527f7f26b83ff96e1f2b6a682f133852f6798a09c465da95921460cefb38474024989060200160405180910390a15b505050565b60606000600d546001600160401b0381111561220b5761220b615eeb565b60405190808252806020026020018201604052801561224457816020015b612231615b5c565b8152602001906001900390816122295790505b50905060005b600d5481116124a45760086000828152602001908152602001600020604051806101200160405290816000820154815260200160018201548152602001600282018054612296906169a0565b80601f01602080910402602001604051908101604052809291908181526020018280546122c2906169a0565b801561230f5780601f106122e45761010080835404028352916020019161230f565b820191906000526020600020905b8154815290600101906020018083116122f257829003601f168201915b50505050508152602001600382015481526020016004820154815260200160058201805480602002602001604051908101604052809291908181526020016000905b828210156123bd576000848152602090819020830180546040805182850281018501909152818152928301828280156123a957602002820191906000526020600020905b815481526020019060010190808311612395575b505050505081526020019060010190612351565b50505090825250600682015460ff1615156020820152600782015460408201526008820180546060909201916123f2906169a0565b80601f016020809104026020016040519081016040528092919081815260200182805461241e906169a0565b801561246b5780601f106124405761010080835404028352916020019161246b565b820191906000526020600020905b81548152906001019060200180831161244e57829003601f168201915b50505050508152505082828151811061248657612486616c44565b6020026020010181905250808061249c90616afe565b91505061224a565b50919050565b60608382146124ed5760405162461bcd60e51b815260206004820152600f60248201526e0988a9c8ea890be9a92a69a82a8869608b1b604482015260640161077d565b836001600160401b0381111561250557612505615eeb565b60405190808252806020026020018201604052801561252e578160200160208202803683370190505b50905060005b848110156125d6576001600087878481811061255257612552616c44565b90506020020160208101906125679190616e86565b6001600160a01b03166001600160a01b03168152602001908152602001600020600085858481811061259b5761259b616c44565b905060200201358152602001908152602001600020548282815181106125c3576125c3616c44565b6020908102919091010152600101612534565b50949350505050565b601054604051632474521560e21b815260008051602061711383398151915260048201523360248201526001600160a01b03909116906391d1485490604401602060405180830381865afa15801561263b573d6000803e3d6000fd5b505050506040513d601f19601f8201168201806040525081019061265f91906167ca565b61267b5760405162461bcd60e51b815260040161077d90616ab1565b60005b818110156126ba576126a88484848481811061269c5761269c616c44565b90506020020135610e7b565b806126b281616afe565b91505061267e565b50505050565b601054604051632474521560e21b8152600080516020617113833981519152600482015233602482015260009182916001600160a01b03909116906391d1485490604401602060405180830381865afa158015612721573d6000803e3d6000fd5b505050506040513d601f19601f8201168201806040525081019061274591906167ca565b6127615760405162461bcd60e51b815260040161077d90616ab1565b600061276c60045490565b9050600061277960055490565b808652602080870184815260008581526009909252604091829020885181559051600182015590870151919250869160028201906127b79082616dc7565b5060608201516003820155608082015160048201906127d69082616dc7565b5050506000818152600b6020526040902082905560808501516127fa908290614d8e565b7f521775a68c3c76447002cd585e8fd1ffe4cb3f7299b729ab6f799c7c62bdd1468183876040015160405161283193929190616ea3565b60405180910390a1600c805490600061284983616afe565b919050555061285c600480546001019055565b61286a600580546001019055565b92509050915091565b600080600084848080601f01602080910402602001604051908101604052809392919081815260200183838082843760009201829052509394505050505b600c54811161294f57816040516020016128cb9190615d95565b60408051601f198184030181528282528051602091820120600085815260098352929092209192612900926002019101616c88565b604051602081830303815290604052805190602001200361293d5760009081526009602052604090208054600190910154909350915061298a9050565b8061294781616afe565b9150506128b1565b5060405162461bcd60e51b815260206004820152600f60248201526e27379031b630b9b9903337bab7321760891b604482015260640161077d565b9250929050565b60606000600c546001600160401b038111156129af576129af615eeb565b604051908082528060200260200182016040528015612a1257816020015b6129ff6040518060a0016040528060008152602001600081526020016060815260200160008152602001606081525090565b8152602001906001900390816129cd5790505b50905060015b600c5481116124a457600960008281526020019081526020016000206040518060a00160405290816000820154815260200160018201548152602001600282018054612a63906169a0565b80601f0160208091040260200160405190810160405280929190818152602001828054612a8f906169a0565b8015612adc5780601f10612ab157610100808354040283529160200191612adc565b820191906000526020600020905b815481529060010190602001808311612abf57829003601f168201915b5050505050815260200160038201548152602001600482018054612aff906169a0565b80601f0160208091040260200160405190810160405280929190818152602001828054612b2b906169a0565b8015612b785780601f10612b4d57610100808354040283529160200191612b78565b820191906000526020600020905b815481529060010190602001808311612b5b57829003601f168201915b50505050508152505082600183612b8f9190616ec2565b81518110612b9f57612b9f616c44565b60200260200101819052508080612bb590616afe565b915050612a18565b601054604051632474521560e21b81526000805160206170f383398151915260048201523360248201526000916001600160a01b0316906391d1485490604401602060405180830381865afa158015612c1a573d6000803e3d6000fd5b505050506040513d601f19601f82011682018060405250810190612c3e91906167ca565b612c5a5760405162461bcd60e51b815260040161077d906167e7565b8584148015612c6857508582145b612ca65760405162461bcd60e51b815260206004820152600f60248201526e0988a9c8ea890409a92a69a82a8869608b1b604482015260640161077d565b60005b868110156131c657878782818110612cc357612cc3616c44565b90506020020135600003612d105760405162461bcd60e51b815260206004820152601460248201527363616e206f6e6c7920636c61696d204974656d7360601b604482015260640161077d565b6000600860008a8a85818110612d2857612d28616c44565b905060200201358152602001908152602001600020604051806101200160405290816000820154815260200160018201548152602001600282018054612d6d906169a0565b80601f0160208091040260200160405190810160405280929190818152602001828054612d99906169a0565b8015612de65780601f10612dbb57610100808354040283529160200191612de6565b820191906000526020600020905b815481529060010190602001808311612dc957829003601f168201915b50505050508152602001600382015481526020016004820154815260200160058201805480602002602001604051908101604052809291908181526020016000905b82821015612e9457600084815260209081902083018054604080518285028101850190915281815292830182828015612e8057602002820191906000526020600020905b815481526020019060010190808311612e6c575b505050505081526020019060010190612e28565b50505090825250600682015460ff161515602082015260078201546040820152600882018054606090920191612ec9906169a0565b80601f0160208091040260200160405190810160405280929190818152602001828054612ef5906169a0565b8015612f425780601f10612f1757610100808354040283529160200191612f42565b820191906000526020600020905b815481529060010190602001808311612f2557829003601f168201915b5050509190925250505060e081015190915061305157601054604051632474521560e21b81526000805160206170f383398151915260048201523360248201526001600160a01b03909116906391d1485490604401602060405180830381865afa158015612fb4573d6000803e3d6000fd5b505050506040513d601f19601f82011682018060405250810190612fd891906167ca565b6130245760405162461bcd60e51b815260206004820152601f60248201527f4f6e6c7920636861726163746572732063616e20636c61696d206974656d7300604482015260640161077d565b61304b33826000015189898681811061303f5761303f616c44565b90506020020135614deb565b506131b3565b600089898481811061306557613065616c44565b905060200201353389898681811061307f5761307f616c44565b905060200201356040516020016130bb9392919092835260609190911b6bffffffffffffffffffffffff19166020830152603482015260540190565b60408051601f198184030181528282528051602091820120908301520160405160208183030381529060405280519060200120905061315386868581811061310557613105616c44565b90506020028101906131179190616ed9565b8080602002602001604051908101604052809392919081815260200183836020028082843760009201919091525050505060e0840151836154a2565b6131955760405162461bcd60e51b815260206004820152601360248201527213595c9adb1948141c9bdbd98811985a5b1959606a1b604482015260640161077d565b6131b03383600001518a8a8781811061303f5761303f616c44565b50505b50806131be81616afe565b915050612ca9565b506001979650505050505050565b60105460405163cb0825a160e01b81526004810184905260009182916001600160a01b039091169063cb0825a190602401600060405180830381865afa158015613222573d6000803e3d6000fd5b505050506040513d6000823e601f3d908101601f1916820160405261324a91908101906168c0565b6000848152600960205260409020549091508061329f5760405162461bcd60e51b815260206004820152601360248201527274686973206973206e6f74206120636c61737360681b604482015260640161077d565b601054604051632474521560e21b815260008051602061711383398151915260048201523360248201526001600160a01b03909116906391d1485490604401602060405180830381865afa1580156132fb573d6000803e3d6000fd5b505050506040513d601f19601f8201168201806040525081019061331f91906167ca565b1561347457601054604051630245ca3f60e31b815260048101879052602481018690526001600160a01b039091169063122e51f890604401602060405180830381865afa158015613374573d6000803e3d6000fd5b505050506040513d601f19601f8201168201806040525081019061339891906167ca565b1561345f5760105460405163db131f5b60e01b815260048101879052602481018690526001600160a01b039091169063db131f5b906044016020604051808303816000875af11580156133ef573d6000803e3d6000fd5b505050506040513d601f19601f8201168201806040525081019061341391906167ca565b61345f5760405162461bcd60e51b815260206004820152601f60248201527f506c6179657220646f6573206e6f742068617665207468617420636c61737300604482015260640161077d565b61346f82604001518260016154b8565b613628565b60608201516001600160a01b031633148061349b575060408201516001600160a01b031633145b6134dd5760405162461bcd60e51b81526020600482015260136024820152720494e434f5252454354204f574e45525348495606c1b604482015260640161077d565b601054604051630245ca3f60e31b815260048101879052602481018690526001600160a01b039091169063122e51f890604401602060405180830381865afa15801561352d573d6000803e3d6000fd5b505050506040513d601f19601f8201168201806040525081019061355191906167ca565b156136185760105460405163db131f5b60e01b815260048101879052602481018690526001600160a01b039091169063db131f5b906044016020604051808303816000875af11580156135a8573d6000803e3d6000fd5b505050506040513d601f19601f820116820180604052508101906135cc91906167ca565b6136185760405162461bcd60e51b815260206004820152601a60248201527f596f7520646f206e6f742068617665207468617420636c617373000000000000604482015260640161077d565b61362882604001518260016154b8565b506001949350505050565b6009602052600090815260409020805460018201546002830180549293919261365b906169a0565b80601f0160208091040260200160405190810160405280929190818152602001828054613687906169a0565b80156136d45780601f106136a9576101008083540402835291602001916136d4565b820191906000526020600020905b8154815290600101906020018083116136b757829003601f168201915b5050505050908060030154908060040180546136ef906169a0565b80601f016020809104026020016040519081016040528092919081815260200182805461371b906169a0565b80156137685780601f1061373d57610100808354040283529160200191613768565b820191906000526020600020905b81548152906001019060200180831161374b57829003601f168201915b5050505050905085565b6000808260000361378857506000928392509050565b6000838152600a6020526040902054156137b05750506000908152600a602052604081205491565b6000838152600b602052604090205491508161380e5760405162461bcd60e51b815260206004820152601f60248201527f546f6b656e4964206973206e6f7420616e206974656d206f7220636c61737300604482015260640161077d565b509160019150565b601054604051632474521560e21b8152600080516020617113833981519152600482015233602482015260009182916001600160a01b03909116906391d1485490604401602060405180830381865afa158015613877573d6000803e3d6000fd5b505050506040513d601f19601f8201168201806040525081019061389b91906167ca565b6138b75760405162461bcd60e51b815260040161077d90616ab1565b60006138f885858080601f01602080910402602001604051908101604052809392919081815260200183838082843760009201919091525061553e92505050565b90506000306001600160a01b0316826040015160405160240161391b9190615d95565b60408051601f198184030181529181526020820180516001600160e01b0316633d90306b60e01b179052516139509190616f22565b6000604051808303816000865af19150503d806000811461398d576040519150601f19603f3d011682016040523d82523d6000602084013e613992565b606091505b5050905080156139db5760405162461bcd60e51b815260206004820152601460248201527324ba32b69030b63932b0b23c9032bc34b9ba399760611b604482015260640161077d565b60006139e660055490565b905060006139f360035490565b9050613a0482856101000151614d8e565b613a1930838660600151876101000151614c4a565b8184526020808501828152600083815260089092526040918290208651815590516001820155908501518591906002820190613a559082616dc7565b50606082015160038201556080820151600482015560a08201518051613a85916005840191602090910190615ade565b5060c082015160068201805460ff191691151591909117905560e082015160078201556101008201516008820190613abd9082616dc7565b509050507ff67b27abdd9ba1c236bce42a29a7d25d315120bcc835536c7040c2888acbcca081838660400151604051613af893929190616ea3565b60405180910390a1613b0e600380546001019055565b613b1c600580546001019055565b600d8054906000613b2c83616afe565b90915550506000828152600a602052604090208190559097909650945050505050565b601054604051632474521560e21b815260008051602061711383398151915260048201523360248201526000916001600160a01b0316906391d1485490604401602060405180830381865afa158015613bac573d6000803e3d6000fd5b505050506040513d601f19601f82011682018060405250810190613bd091906167ca565b613bec5760405162461bcd60e51b815260040161077d90616ab1565b6000613bf784613772565b9150508015613c485782600114613c485760405162461bcd60e51b81526020600482015260156024820152744f4e4c59204f4e45204f4620414e5920434c41535360581b604482015260640161077d565b600060086000878152602001908152602001600020604051806101200160405290816000820154815260200160018201548152602001600282018054613c8d906169a0565b80601f0160208091040260200160405190810160405280929190818152602001828054613cb9906169a0565b8015613d065780601f10613cdb57610100808354040283529160200191613d06565b820191906000526020600020905b815481529060010190602001808311613ce957829003601f168201915b50505050508152602001600382015481526020016004820154815260200160058201805480602002602001604051908101604052809291908181526020016000905b82821015613db457600084815260209081902083018054604080518285028101850190915281815292830182828015613da057602002820191906000526020600020905b815481526020019060010190808311613d8c575b505050505081526020019060010190613d48565b50505090825250600682015460ff161515602082015260078201546040820152600882018054606090920191613de9906169a0565b80601f0160208091040260200160405190810160405280929190818152602001828054613e15906169a0565b8015613e625780601f10613e3757610100808354040283529160200191613e62565b820191906000526020600020905b815481529060010190602001808311613e4557829003601f168201915b5050505050815250509050600080600090505b8260a0015151811015613ed757868360a001518281518110613e9957613e99616c44565b6020026020010151600081518110613eb357613eb3616c44565b602002602001015103613ec557600191505b80613ecf81616afe565b915050613e75565b508015613f1e5760405162461bcd60e51b8152602060048201526015602482015274111554131250d05511481491545552549153515395605a1b604482015260640161077d565b6040805160028082526060820183526000926020830190803683370190505090508681600081518110613f5357613f53616c44565b6020026020010181815250508581600181518110613f7357613f73616c44565b602090810291909101810191909152600089815260088252604081206005018054600181018255908252908290208351610a2693919092019190840190615bad565b613fbf82826155b9565b5050565b60086020526000908152604090208054600182015460028301805492939192613feb906169a0565b80601f0160208091040260200160405190810160405280929190818152602001828054614017906169a0565b80156140645780601f1061403957610100808354040283529160200191614064565b820191906000526020600020905b81548152906001019060200180831161404757829003601f168201915b50505060038401546004850154600686015460078701546008880180549798949793965060ff9092169450929161409a906169a0565b80601f01602080910402602001604051908101604052809291908181526020018280546140c6906169a0565b80156141135780601f106140e857610100808354040283529160200191614113565b820191906000526020600020905b8154815290600101906020018083116140f657829003601f168201915b5050505050905088565b614125615b5c565b60086000838152602001908152602001600020604051806101200160405290816000820154815260200160018201548152602001600282018054614168906169a0565b80601f0160208091040260200160405190810160405280929190818152602001828054614194906169a0565b80156141e15780601f106141b6576101008083540402835291602001916141e1565b820191906000526020600020905b8154815290600101906020018083116141c457829003601f168201915b50505050508152602001600382015481526020016004820154815260200160058201805480602002602001604051908101604052809291908181526020016000905b8282101561428f5760008481526020908190208301805460408051828502810185019091528181529283018282801561427b57602002820191906000526020600020905b815481526020019060010190808311614267575b505050505081526020019060010190614223565b50505090825250600682015460ff161515602082015260078201546040820152600882018054606090920191610b45906169a0565b601054604051632474521560e21b81526000805160206170f383398151915260048201526001600160a01b038781166024830152909116906391d1485490604401602060405180830381865afa158015614322573d6000803e3d6000fd5b505050506040513d601f19601f8201168201806040525081019061434691906167ca565b6143835760405162461bcd60e51b815260206004820152600e60248201526d434841524143546572204f4e4c5960901b604482015260640161077d565b60008061438f86613772565b915091506000821180156143a1575080155b6143ed5760405162461bcd60e51b815260206004820152601860248201527f74686973206974656d20646f6573206e6f742065786973740000000000000000604482015260640161077d565b600060086000848152602001908152602001600020604051806101200160405290816000820154815260200160018201548152602001600282018054614432906169a0565b80601f016020809104026020016040519081016040528092919081815260200182805461445e906169a0565b80156144ab5780601f10614480576101008083540402835291602001916144ab565b820191906000526020600020905b81548152906001019060200180831161448e57829003601f168201915b50505050508152602001600382015481526020016004820154815260200160058201805480602002602001604051908101604052809291908181526020016000905b828210156145595760008481526020908190208301805460408051828502810185019091528181529283018282801561454557602002820191906000526020600020905b815481526020019060010190808311614531575b5050505050815260200190600101906144ed565b50505090825250600682015460ff16151560208201526007820154604082015260088201805460609092019161458e906169a0565b80601f01602080910402602001604051908101604052809291908181526020018280546145ba906169a0565b80156146075780601f106145dc57610100808354040283529160200191614607565b820191906000526020600020905b8154815290600101906020018083116145ea57829003601f168201915b5050509190925250505060c08101519091501561465f5760405162461bcd60e51b8152602060048201526016602482015275151a1a5cc81a5d195b481a5cc81cdbdd5b189bdd5b9960521b604482015260640161077d565b61466d898989898989615625565b505050505050505050565b601054604051632474521560e21b815260008051602061711383398151915260048201523360248201526000916001600160a01b0316906391d1485490604401602060405180830381865afa1580156146d5573d6000803e3d6000fd5b505050506040513d601f19601f820116820180604052508101906146f991906167ca565b6147155760405162461bcd60e51b815260040161077d90616ab1565b858414801561472357508382145b6147615760405162461bcd60e51b815260206004820152600f60248201526e0988a9c8ea890409a92a69a82a8869608b1b604482015260640161077d565b60005b868110156131c65760005b86868381811061478157614781616c44565b90506020028101906147939190616ed9565b9050811015614be9578686838181106147ae576147ae616c44565b90506020028101906147c09190616ed9565b828181106147d0576147d0616c44565b905060200201356000148015614820575060008585848181106147f5576147f5616c44565b90506020028101906148079190616ed9565b8381811061481757614817616c44565b90506020020135115b156148955761488f89898481811061483a5761483a616c44565b905060200201602081019061484f9190616e86565b86868581811061486157614861616c44565b90506020028101906148739190616ed9565b8481811061488357614883616c44565b90506020020135615823565b50614bd7565b6000600860008989868181106148ad576148ad616c44565b90506020028101906148bf9190616ed9565b858181106148cf576148cf616c44565b905060200201358152602001908152602001600020604051806101200160405290816000820154815260200160018201548152602001600282018054614914906169a0565b80601f0160208091040260200160405190810160405280929190818152602001828054614940906169a0565b801561498d5780601f106149625761010080835404028352916020019161498d565b820191906000526020600020905b81548152906001019060200180831161497057829003601f168201915b50505050508152602001600382015481526020016004820154815260200160058201805480602002602001604051908101604052809291908181526020016000905b82821015614a3b57600084815260209081902083018054604080518285028101850190915281815292830182828015614a2757602002820191906000526020600020905b815481526020019060010190808311614a13575b5050505050815260200190600101906149cf565b50505090825250600682015460ff161515602082015260078201546040820152600882018054606090920191614a70906169a0565b80601f0160208091040260200160405190810160405280929190818152602001828054614a9c906169a0565b8015614ae95780601f10614abe57610100808354040283529160200191614ae9565b820191906000526020600020905b815481529060010190602001808311614acc57829003601f168201915b505050505081525050905060008160a00151511115614b7357614b6e8a8a85818110614b1757614b17616c44565b9050602002016020810190614b2c9190616e86565b8251888887818110614b4057614b40616c44565b9050602002810190614b529190616ed9565b86818110614b6257614b62616c44565b90506020020135615862565b614bd5565b614bd38a8a85818110614b8857614b88616c44565b9050602002016020810190614b9d9190616e86565b8251888887818110614bb157614bb1616c44565b9050602002810190614bc39190616ed9565b8681811061303f5761303f616c44565b505b505b80614be181616afe565b91505061476f565b5080614bf481616afe565b915050614764565b60006301ffc9a760e01b6001600160e01b031983161480614c2d5750636cdb3d1360e11b6001600160e01b03198316145b806106da5750506001600160e01b0319166303a24d0760e21b1490565b6001600160a01b038416600090815260016020908152604080832086845290915281208054849290614c7d908490616c5a565b909155505060408051848152602081018490526001600160a01b0386169160009133917fc3d58168c5ae7397731d063d5bbf3d657854427343f4c083240f7aacaa2d0f62910160405180910390a46001600160a01b0384163b15614d655760405163f23a6e6160e01b808252906001600160a01b0386169063f23a6e6190614d12903390600090899089908990600401616f3e565b6020604051808303816000875af1158015614d31573d6000803e3d6000fd5b505050506040513d601f19601f82011682018060405250810190614d559190616bfd565b6001600160e01b03191614614d72565b6001600160a01b03841615155b6126ba5760405162461bcd60e51b815260040161077d90616c1a565b6000828152600760205260409020614da68282616dc7565b50817f6bb7ff708619ba0610cba295a58592e0451dee2622938c8755667688daf3529b614dd284610bce565b604051614ddf9190615d95565b60405180910390a25050565b601054604051632474521560e21b81526000805160206170f383398151915260048201526001600160a01b03858116602483015260009216906391d1485490604401602060405180830381865afa158015614e4a573d6000803e3d6000fd5b505050506040513d601f19601f82011682018060405250810190614e6e91906167ca565b614eab5760405162461bcd60e51b815260206004820152600e60248201526d434841524143544552204f4e4c5960901b604482015260640161077d565b60008211614efb5760405162461bcd60e51b815260206004820152601d60248201527f43616e6e6f74207472616e736665722030206f6620616e797468696e67000000604482015260640161077d565b82158015614f095750600082115b15614f2257614f188483615823565b5060019050610d29565b600080614f2e85613772565b915091508015614f805760405162461bcd60e51b815260206004820152601760248201527f43616e6e6f74207472616e7366657220636c6173736573000000000000000000604482015260640161077d565b600060086000848152602001908152602001600020604051806101200160405290816000820154815260200160018201548152602001600282018054614fc5906169a0565b80601f0160208091040260200160405190810160405280929190818152602001828054614ff1906169a0565b801561503e5780601f106150135761010080835404028352916020019161503e565b820191906000526020600020905b81548152906001019060200180831161502157829003601f168201915b50505050508152602001600382015481526020016004820154815260200160058201805480602002602001604051908101604052809291908181526020016000905b828210156150ec576000848152602090819020830180546040805182850281018501909152818152928301828280156150d857602002820191906000526020600020905b8154815260200190600101908083116150c4575b505050505081526020019060010190615080565b50505090825250600682015460ff161515602082015260078201546040820152600882018054606090920191615121906169a0565b80601f016020809104026020016040519081016040528092919081815260200182805461514d906169a0565b801561519a5780601f1061516f5761010080835404028352916020019161519a565b820191906000526020600020905b81548152906001019060200180831161517d57829003601f168201915b505050505081525050905060008160600151116151ef5760405162461bcd60e51b8152602060048201526013602482015272125d195b48191bd95cc81b9bdd08195e1a5cdd606a1b604482015260640161077d565b606060005b8260a00151518110156153b8578260a00151818151811061521757615217616c44565b6020026020010151915060006152468360008151811061523957615239616c44565b6020026020010151613772565b9150508061536957878360018151811061526257615262616c44565b60200260200101516152749190616f78565b6152988b8560008151811061528b5761528b616c44565b60200260200101516106a8565b10156152e65760405162461bcd60e51b815260206004820152601760248201527f494e434f5252454354205245515549524544204954454d000000000000000000604482015260640161077d565b87836001815181106152fa576152fa616c44565b602002602001015161530c9190616f78565b6001600160a01b038b16600090815260016020526040812085519091908690829061533957615339616c44565b60200260200101518152602001908152602001600020600082825461535e9190616ec2565b909155506153a59050565b80156153a5576153868a8460008151811061528b5761528b616c44565b6001146153a55760405162461bcd60e51b815260040161077d906169d4565b50806153b081616afe565b9150506151f4565b5030600090815260016020908152604080832085518452909152812080548892906153e4908490616ec2565b90915550506001600160a01b0388166000908152600160209081526040808320855184529091528120805488929061541d908490616c5a565b909155505060008481526008602052604081206004018054889290615443908490616c5a565b90915550508151604080516001600160a01b038b168152602081019290925281018590527ffa3ec27450ec8d20d84e2609ee5860b1e8b78eb7874558be85ab5a855ad8a3ff9060600160405180910390a1506001979650505050505050565b6000826154af8584615a65565b14949350505050565b6001600160a01b0383166000908152600160209081526040808320858452909152812080548392906154eb908490616ec2565b909155505060408051838152602081018390526000916001600160a01b0386169133917fc3d58168c5ae7397731d063d5bbf3d657854427343f4c083240f7aacaa2d0f62910160405180910390a4505050565b615546615b5c565b6060600060606000806060878060200190518101906155659190616f97565b6040805161012081018252600080825260208201819052918101979097526060870195909552608086019490945260a0850192909252151560c084015260e083015261010082015298975050505050505050565b3360008181526002602090815260408083206001600160a01b03871680855290835292819020805460ff191686151590811790915590519081529192917f17307eab39ab6107e8899845ad3d59bd9653f200f220920489ca2b5937696c31910160405180910390a35050565b336001600160a01b038716148061565f57506001600160a01b038616600090815260026020908152604080832033845290915290205460ff165b61569c5760405162461bcd60e51b815260206004820152600e60248201526d1393d517d055551213d49256915160921b604482015260640161077d565b6001600160a01b0386166000908152600160209081526040808320878452909152812080548592906156cf908490616ec2565b90915550506001600160a01b038516600090815260016020908152604080832087845290915281208054859290615707908490616c5a565b909155505060408051858152602081018590526001600160a01b03808816929089169133917fc3d58168c5ae7397731d063d5bbf3d657854427343f4c083240f7aacaa2d0f62910160405180910390a46001600160a01b0385163b156157f25760405163f23a6e6160e01b808252906001600160a01b0387169063f23a6e619061579f9033908b908a908a908a908a906004016170b7565b6020604051808303816000875af11580156157be573d6000803e3d6000fd5b505050506040513d601f19601f820116820180604052508101906157e29190616bfd565b6001600160e01b031916146157ff565b6001600160a01b03851615155b61581b5760405162461bcd60e51b815260040161077d90616c1a565b505050505050565b60006158418360008460405180602001604052806000815250614c4a565b81600e60008282546158539190616c5a565b9091555050600e549392505050565b60008061586e84613772565b91509150816000141580615880575080155b6158cc5760405162461bcd60e51b815260206004820152601e60248201527f63616e6e6f74207472616e7366657220657870206f7220636c61737365730000604482015260640161077d565b601054604051632474521560e21b81526000805160206170f383398151915260048201526001600160a01b038781166024830152909116906391d1485490604401602060405180830381865afa15801561592a573d6000803e3d6000fd5b505050506040513d601f19601f8201168201806040525081019061594e91906167ca565b61598b5760405162461bcd60e51b815260206004820152600e60248201526d434841524143544552204f4e4c5960901b604482015260640161077d565b306000908152600160209081526040808320878452909152812080548592906159b5908490616ec2565b90915550506001600160a01b0385166000908152600160209081526040808320878452909152812080548592906159ed908490616c5a565b90915550506000828152600860205260408120600401805491615a0f83616afe565b9091555050604080516001600160a01b0387168152602081018690529081018390527ffa3ec27450ec8d20d84e2609ee5860b1e8b78eb7874558be85ab5a855ad8a3ff9060600160405180910390a15050505050565b600081815b8451811015615aaa57615a9682868381518110615a8957615a89616c44565b6020026020010151615ab2565b915080615aa281616afe565b915050615a6a565b509392505050565b6000818310615ace576000828152602084905260409020610d29565b5060009182526020526040902090565b828054828255906000526020600020908101928215615b2b579160200282015b82811115615b2b5782518051615b1b918491602090910190615bad565b5091602001919060010190615afe565b50615b37929150615bf4565b5090565b5080546000825590600052602060002090810190615b599190615c11565b50565b60405180610120016040528060008152602001600081526020016060815260200160008152602001600081526020016060815260200160001515815260200160008019168152602001606081525090565b828054828255906000526020600020908101928215615be8579160200282015b82811115615be8578251825591602001919060010190615bcd565b50615b37929150615c11565b80821115615b37576000615c088282615b3b565b50600101615bf4565b5b80821115615b375760008155600101615c12565b6001600160a01b0381168114615b5957600080fd5b60008060408385031215615c4e57600080fd5b8235615c5981615c26565b946020939093013593505050565b6001600160e01b031981168114615b5957600080fd5b600060208284031215615c8f57600080fd5b8135610d2981615c67565b60008060408385031215615cad57600080fd5b50508035926020909101359150565b600060208284031215615cce57600080fd5b5035919050565b60005b83811015615cf0578181015183820152602001615cd8565b838111156126ba5750506000910152565b60008151808452615d19816020860160208601615cd5565b601f01601f19169290920160200192915050565b80518252602081015160208301526000604082015160a06040850152615d5660a0850182615d01565b90506060830151606085015260808301518482036080860152615d798282615d01565b95945050505050565b602081526000610d296020830184615d2d565b602081526000610d296020830184615d01565b60008083601f840112615dba57600080fd5b5081356001600160401b03811115615dd157600080fd5b6020830191508360208260051b850101111561298a57600080fd5b60008083601f840112615dfe57600080fd5b5081356001600160401b03811115615e1557600080fd5b60208301915083602082850101111561298a57600080fd5b60008060008060008060008060a0898b031215615e4957600080fd5b8835615e5481615c26565b97506020890135615e6481615c26565b965060408901356001600160401b0380821115615e8057600080fd5b615e8c8c838d01615da8565b909850965060608b0135915080821115615ea557600080fd5b615eb18c838d01615da8565b909650945060808b0135915080821115615eca57600080fd5b50615ed78b828c01615dec565b999c989b5096995094979396929594505050565b634e487b7160e01b600052604160045260246000fd5b60405160a081016001600160401b0381118282101715615f2357615f23615eeb565b60405290565b60405160c081016001600160401b0381118282101715615f2357615f23615eeb565b604051601f8201601f191681016001600160401b0381118282101715615f7357615f73615eeb565b604052919050565b60006001600160401b03821115615f9457615f94615eeb565b50601f01601f191660200190565b600082601f830112615fb357600080fd5b8135615fc6615fc182615f7b565b615f4b565b818152846020838601011115615fdb57600080fd5b816020850160208301376000918101602001919091529392505050565b60006020828403121561600a57600080fd5b81356001600160401b0381111561602057600080fd5b611f5684828501615fa2565b6000806020838503121561603f57600080fd5b82356001600160401b0381111561605557600080fd5b61606185828601615dec565b90969095509350505050565b600081518084526020808501945080840160005b8381101561609d57815187529582019590820190600101616081565b509495945050505050565b600081518084526020808501808196508360051b8101915082860160005b858110156160f05782840389526160de84835161606d565b988501989350908401906001016160c6565b5091979650505050505050565b60006101208251845260208301516020850152604083015181604086015261612782860182615d01565b915050606083015160608501526080830151608085015260a083015184820360a086015261615582826160a8565b91505060c083015161616b60c086018215159052565b5060e083015160e0850152610100808401518583038287015261618e8382615d01565b9695505050505050565b6000602080830181845280855180835260408601915060408160051b870101925083870160005b828110156161ed57603f198886030184526161db8583516160fd565b945092850192908501906001016161bf565b5092979650505050505050565b6000806000806040858703121561621057600080fd5b84356001600160401b038082111561622757600080fd5b61623388838901615da8565b9096509450602087013591508082111561624c57600080fd5b5061625987828801615da8565b95989497509550505050565b602081526000610d29602083018461606d565b60008060006040848603121561628d57600080fd5b8335925060208401356001600160401b038111156162aa57600080fd5b6162b686828701615da8565b9497909650939450505050565b6000602082840312156162d557600080fd5b81356001600160401b03808211156162ec57600080fd5b9083019060a0828603121561630057600080fd5b616308615f01565b823581526020830135602082015260408301358281111561632857600080fd5b61633487828601615fa2565b6040830152506060830135606082015260808301358281111561635657600080fd5b61636287828601615fa2565b60808301525095945050505050565b6000602080830181845280855180835260408601915060408160051b870101925083870160005b828110156161ed57603f198886030184526163b4858351615d2d565b94509285019290850190600101616398565b600080600080600080606087890312156163df57600080fd5b86356001600160401b03808211156163f657600080fd5b6164028a838b01615da8565b9098509650602089013591508082111561641b57600080fd5b6164278a838b01615da8565b9096509450604089013591508082111561644057600080fd5b5061644d89828a01615da8565b979a9699509497509295939492505050565b85815284602082015260a06040820152600061647e60a0830186615d01565b84606084015282810360808401526164968185615d01565b98975050505050505050565b6000806000606084860312156164b757600080fd5b505081359360208301359350604090920135919050565b8015158114615b5957600080fd5b600080604083850312156164ef57600080fd5b82356164fa81615c26565b9150602083013561650a816164ce565b809150509250929050565b60006001600160401b0382111561652e5761652e615eeb565b5060051b60200190565b600082601f83011261654957600080fd5b81356020616559615fc183616515565b82815260059290921b8401810191818101908684111561657857600080fd5b8286015b84811015616593578035835291830191830161657c565b509695505050505050565b600080600080600060a086880312156165b657600080fd5b85356165c181615c26565b945060208601356165d181615c26565b935060408601356001600160401b03808211156165ed57600080fd5b6165f989838a01616538565b9450606088013591508082111561660f57600080fd5b61661b89838a01616538565b9350608088013591508082111561663157600080fd5b5061663e88828901615fa2565b9150509295509295909350565b60006101008a835289602084015280604084015261666b8184018a615d01565b905087606084015286608084015285151560a08401528460c084015282810360e08401526166998185615d01565b9b9a5050505050505050505050565b602081526000610d2960208301846160fd565b600080604083850312156166ce57600080fd5b82356166d981615c26565b9150602083013561650a81615c26565b600080600080600060a0868803121561670157600080fd5b853561670c81615c26565b9450602086013561671c81615c26565b9350604086013592506060860135915060808601356001600160401b0381111561674557600080fd5b61663e88828901615fa2565b60008060008060008060a0878903121561676a57600080fd5b863561677581615c26565b9550602087013561678581615c26565b9450604087013593506060870135925060808701356001600160401b038111156167ae57600080fd5b61644d89828a01615dec565b80516167c5816164ce565b919050565b6000602082840312156167dc57600080fd5b8151610d29816164ce565b60208082526014908201527326bab9ba1031329030b71021a420a920a1aa22a960611b604082015260600190565b600082601f83011261682657600080fd5b8151616834615fc182615f7b565b81815284602083860101111561684957600080fd5b611f56826020830160208701615cd5565b80516167c581615c26565b600082601f83011261687657600080fd5b81516020616886615fc183616515565b82815260059290921b840181019181810190868411156168a557600080fd5b8286015b8481101561659357805183529183019183016168a9565b6000602082840312156168d257600080fd5b81516001600160401b03808211156168e957600080fd5b9083019060c082860312156168fd57600080fd5b616905615f29565b8251815260208301518281111561691b57600080fd5b61692787828601616815565b6020830152506169396040840161685a565b604082015261694a6060840161685a565b606082015260808301518281111561696157600080fd5b61696d87828601616865565b60808301525060a08301518281111561698557600080fd5b61699187828601616865565b60a08301525095945050505050565b600181811c908216806169b457607f821691505b6020821081036124a457634e487b7160e01b600052602260045260246000fd5b6020808252600f908201526e494e434f525245435420434c41535360881b604082015260600190565b60208082526013908201527224a721a7a92922a1aa1021a420a920a1aa22a960691b604082015260600190565b6000808454616a38816169a0565b60018281168015616a505760018114616a6557616a94565b60ff1984168752821515830287019450616a94565b8860005260208060002060005b85811015616a8b5781548a820152908401908201616a72565b50505082870194505b505050508351616aa8818360208801615cd5565b01949350505050565b6020808252601e908201527f596f75206d757374206265207468652044756e67656f6e204d61737465720000604082015260600190565b634e487b7160e01b600052601160045260246000fd5b600060018201616b1057616b10616ae8565b5060010190565b81835260006001600160fb1b03831115616b3057600080fd5b8260051b8083602087013760009401602001938452509192915050565b604081526000616b61604083018688616b17565b8281036020840152616b74818587616b17565b979650505050505050565b81835281816020850137506000828201602090810191909152601f909101601f19169091010190565b6001600160a01b0389811682528816602082015260a060408201819052600090616bd5908301888a616b17565b8281036060840152616be8818789616b17565b90508281036080840152616699818587616b7f565b600060208284031215616c0f57600080fd5b8151610d2981615c67565b60208082526010908201526f155394d0519157d49150d2541251539560821b604082015260600190565b634e487b7160e01b600052603260045260246000fd5b60008219821115616c6d57616c6d616ae8565b500190565b634e487b7160e01b600052603160045260246000fd5b6000602080835260008454616c9c816169a0565b80848701526040600180841660008114616cbd5760018114616cd757616d05565b60ff1985168984015283151560051b890183019550616d05565b896000528660002060005b85811015616cfd5781548b8201860152908301908801616ce2565b8a0184019650505b509398975050505050505050565b600080600080600060a08688031215616d2b57600080fd5b8535616d3681615c26565b94506020860135616d4681615c26565b93506040860135616d5681615c26565b92506060860135616d6681615c26565b915060808601356001600160401b0381111561674557600080fd5b601f8211156121e857600081815260208120601f850160051c81016020861015616da85750805b601f850160051c820191505b8181101561581b57828155600101616db4565b81516001600160401b03811115616de057616de0615eeb565b616df481616dee84546169a0565b84616d81565b602080601f831160018114616e295760008415616e115750858301515b600019600386901b1c1916600185901b17855561581b565b600085815260208120601f198616915b82811015616e5857888601518255948401946001909101908401616e39565b5085821015616e765787850151600019600388901b60f8161c191681555b5050505050600190811b01905550565b600060208284031215616e9857600080fd5b8135610d2981615c26565b838152826020820152606060408201526000615d796060830184615d01565b600082821015616ed457616ed4616ae8565b500390565b6000808335601e19843603018112616ef057600080fd5b8301803591506001600160401b03821115616f0a57600080fd5b6020019150600581901b360382131561298a57600080fd5b60008251616f34818460208701615cd5565b9190910192915050565b6001600160a01b03868116825285166020820152604081018490526060810183905260a060808201819052600090616b7490830184615d01565b6000816000190483118215151615616f9257616f92616ae8565b500290565b60008060008060008060c08789031215616fb057600080fd5b86516001600160401b0380821115616fc757600080fd5b616fd38a838b01616815565b9750602089015196506040890151915080821115616ff057600080fd5b818901915089601f83011261700457600080fd5b8151617012615fc182616515565b8082825260208201915060208360051b86010192508c83111561703457600080fd5b602085015b8381101561706e5780518581111561705057600080fd5b61705f8f6020838a0101616865565b84525060209283019201617039565b50975061708091505060608a016167ba565b94506080890151935060a089015191508082111561709d57600080fd5b506170aa89828a01616815565b9150509295509295509295565b6001600160a01b03878116825286166020820152604081018590526060810184905260a0608082018190526000906164969083018486616b7f56feec958b1addb7ef25d87e8aaa47637ba61328605e891a46be09d7a667b919ca489f5957e014b94f6c4458eb946e74e5d7e489dfaff6e0bddd07dd7d48100ca913a2646970667358221220e55208a1757a5a6481781b82698e50bae7b75c1c92ec4ac04bc56ef9da1d608364736f6c634300080f0033",
    "sourcePath": "/home/someguy/Code/character-sheet/src/implementations/ExperienceAndItemsImplementation.sol",
    "compiler": {
        "name": "solc",
        "version": "0.8.15+commit.e14f2714"
    },
    "functionHashes": {
        "CHARACTER()": "100e415a",
        "DUNGEON_MASTER()": "ffb0985e",
        "EXPERIENCE()": "1ab440cf",
        "PLAYER()": "0236ca74",
        "addItemOrClassRequirement(uint256,uint256,uint256)": "9ea54a09",
        "assignClass(uint256,uint256)": "1ef2f983",
        "assignClasses(uint256,uint256[])": "5fdfe6f2",
        "balanceOf(address,uint256)": "00fdd58e",
        "balanceOfBatch(address[],uint256[])": "4e1273f4",
        "characterSheets()": "d22fed16",
        "claimItems(uint256[],uint256[],bytes32[][])": "7195332d",
        "classes(uint256)": "817dbe9f",
        "createClassType((uint256,uint256,string,uint256,string))": "65b8f584",
        "createItemType(bytes)": "9a516586",
        "dropLoot(address[],uint256[][],uint256[][])": "f9bd86e8",
        "equipClass(uint256,uint256)": "e5f69e41",
        "equipItem(uint256,uint256)": "262a8c3b",
        "findClassByName(string)": "67e3d452",
        "findItemByName(string)": "3d90306b",
        "findItemOrClassIdFromTokenId(uint256)": "9a3e4666",
        "getAllClasses()": "6bda75dd",
        "getAllItems()": "4ba1d6aa",
        "getClassById(uint256)": "03d658e0",
        "getItemById(uint256)": "cd2f0710",
        "hats()": "f99f0238",
        "initialize(bytes)": "439fab91",
        "isApprovedForAll(address,address)": "e985e9c5",
        "items(uint256)": "bfb231d2",
        "molochDao()": "50642237",
        "onERC1155BatchReceived(address,address,uint256[],uint256[],bytes)": "bc197c81",
        "onERC1155Received(address,address,uint256,uint256,bytes)": "f23a6e61",
        "removeItemOrClassRequirement(uint256,uint256)": "3aa2adf2",
        "revokeClass(uint256,uint256)": "74ecadd5",
        "safeBatchTransferFrom(address,address,uint256[],uint256[],bytes)": "2eb2c2d6",
        "safeTransferFrom(address,address,uint256,uint256,bytes)": "f242432a",
        "setApprovalForAll(address,bool)": "a22cb465",
        "supportsInterface(bytes4)": "01ffc9a7",
        "totalClasses()": "176523a4",
        "totalExperience()": "925e38f9",
        "totalItemTypes()": "7aaf470c",
        "unequipClass(uint256,uint256)": "03b151e0",
        "unequipItem(uint256,uint256)": "3a345446",
        "updateItemClaimable(uint256,bytes32)": "1a3f09aa",
        "uri(uint256)": "0e89341c"
    },
    "gasEstimates": {
        "creation": {
            "codeDepositCost": "5806400",
            "executionCost": "infinite",
            "totalCost": "infinite"
        },
        "external": {
            "CHARACTER()": "infinite",
            "DUNGEON_MASTER()": "infinite",
            "EXPERIENCE()": "318",
            "PLAYER()": "275",
            "addItemOrClassRequirement(uint256,uint256,uint256)": "infinite",
            "assignClass(uint256,uint256)": "infinite",
            "assignClasses(uint256,uint256[])": "infinite",
            "balanceOf(address,uint256)": "2675",
            "balanceOfBatch(address[],uint256[])": "infinite",
            "characterSheets()": "2448",
            "claimItems(uint256[],uint256[],bytes32[][])": "infinite",
            "classes(uint256)": "infinite",
            "createClassType((uint256,uint256,string,uint256,string))": "infinite",
            "createItemType(bytes)": "infinite",
            "dropLoot(address[],uint256[][],uint256[][])": "infinite",
            "equipClass(uint256,uint256)": "infinite",
            "equipItem(uint256,uint256)": "infinite",
            "findClassByName(string)": "infinite",
            "findItemByName(string)": "infinite",
            "findItemOrClassIdFromTokenId(uint256)": "4823",
            "getAllClasses()": "infinite",
            "getAllItems()": "infinite",
            "getClassById(uint256)": "infinite",
            "getItemById(uint256)": "infinite",
            "hats()": "2447",
            "initialize(bytes)": "infinite",
            "isApprovedForAll(address,address)": "infinite",
            "items(uint256)": "infinite",
            "molochDao()": "2448",
            "onERC1155BatchReceived(address,address,uint256[],uint256[],bytes)": "infinite",
            "onERC1155Received(address,address,uint256,uint256,bytes)": "infinite",
            "removeItemOrClassRequirement(uint256,uint256)": "infinite",
            "revokeClass(uint256,uint256)": "infinite",
            "safeBatchTransferFrom(address,address,uint256[],uint256[],bytes)": "infinite",
            "safeTransferFrom(address,address,uint256,uint256,bytes)": "infinite",
            "setApprovalForAll(address,bool)": "infinite",
            "supportsInterface(bytes4)": "621",
            "totalClasses()": "2374",
            "totalExperience()": "2351",
            "totalItemTypes()": "2418",
            "unequipClass(uint256,uint256)": "infinite",
            "unequipItem(uint256,uint256)": "infinite",
            "updateItemClaimable(uint256,bytes32)": "infinite",
            "uri(uint256)": "infinite"
        },
        "internal": {
            "_createItemStruct(bytes memory)": "infinite",
            "_giveExp(address,uint256)": "infinite",
            "_setBaseURI(string memory)": "infinite",
            "_setURI(uint256,string memory)": "infinite",
            "_transferItem(address,uint256,uint256)": "infinite",
            "_transferItemWithReq(address,uint256,uint256)": "infinite"
        }
    }
}